S014000046696E616C50726F6A6563742E737265634F
S11300000C9418010C9439010C9439010C943901A5
S11300100C9439010C9439010C9439010C94390174
S11300200C9439010C9439010C94B8010C943901E5
S11300300C9439010C9439010C948F010C943901FE
S11300400C9439010C9439010C9439010C94390144
S11300500C9439010C9439010C9439010C94390134
S11300600C9439010C9465010C9439010C943B01F6
S11300700C9439010C9439010C9439010C94390114
S11300800C9439010C9439010C9439010C94390104
S11300900C9439010C9439010C9439010C943901F4
S11300A00C9439010C9439010C9439010C943901E4
S11300B00C9439010C9439010C9439010C943901D4
S11300C00C9439010C9439010C9439010C943901C4
S11300D00C9439010C9439010C9439010C943901B4
S11300E00C9439010C9439010C9439010C943901A4
S11300F00C9439010C9439010C9439010C94390194
S11301000C9439010C9439010C9439010C94390183
S11301100C9439010C9439010C9439010C94390173
S11301200C9439010C9439010C9439010C94390163
S11301300C9439010C9439010C9439010C94390153
S11301400C949E012B07FE060307FE060807FE0615
S11301500D07FE061207FE061707FE061C07FE061D
S11301602107FE06FE06FE06FE06FE06FE06FE0647
S1130170FE06FE06FE06FE06FE06FE06FE06FE065B
S1130180FE06FE06260707634236B79BD8A71A3930
S1130190685618AEBAAB558C1D3CB7CC5763BD6DD1
S11301A0EDFD753EF6177231BF000000803F080078
S11301B00000BE922449123EABAAAA2ABECDCCCCE2
S11301C04C3E00000080BEABAAAAAA3E000000007C
S11301D0BF000000803F0000000000084178D3BB4E
S11301E04387D1133D190E3CC3BD4282AD2B3E68FB
S11301F0EC8276BED98FE1A93E4C80EFFFBE01C4EC
S1130200FF7F3F00000000000C9426070C94210798
S11302100C9408070C942B070C941C070C94FE06F2
S11302200C940D070C9412070C9403070C941707F5
S113023011241FBECFEFCDBFDFE3DEBF00E00CBF54
S113024010E2A0E0B0E2E0E6FEE100E00BBF02C095
S113025007900D92A431B107D9F720E2A4E1B0E2EE
S113026001C01D92AF3DB207E1F70E948B020C94CE
S11302702E0F0C9400001F920F920FB60F921124B0
S11302800BB60F922F933F934F935F936F937F938C
S11302908F939F93AF93BF93EF93FF9385E390E284
S11302A00E94C202FF91EF91BF91AF919F918F91F4
S11302B07F916F915F914F913F912F910F900BBE62
S11302C00F900FBE0F901F9018951F920F920FB6AC
S11302D00F9211240BB60F922F933F934F935F937A
S11302E06F937F938F939F93AF93BF93EF93FF93FA
S11302F085E390E20E94E902FF91EF91BF91AF91F3
S11303009F918F917F916F915F914F913F912F9129
S11303100F900BBE0F900FBE0F901F9018951F9259
S11303200F920FB60F9211248F9381E080933420A3
S11303308F910F900FBE0F901F9018951F920F92E0
S11303400FB60F9211248F939F93809134208823AA
S113035041F080912402909125028093D9209093BA
S1130360DA209F918F910F900FBE0F901F901895D8
S11303701F920F920FB60F9211240BB60F922F9368
S11303808F939F93EF93FF93E8E4F0E080818E7F57
S11303908083E4E2F6E08FEE80832FE38DE093E048
S11303A0215080409040E1F700C000008FEF80832F
S11303B02FE38DE093E0215080409040E1F700C0AE
S11303C00000FF91EF919F918F912F910F900BBEA1
S11303D00F900FBE0F901F90189580EF809320060A
S11303E08FEF8093240608958F92AF92CF92EF926D
S11303F0FF920F93CF93DF9300D01F92CDB7DEB758
S1130400BE016F5F7F4F80E090E00E948F06E5E3BE
S1130410F0E28FE590E2808B918B8DE990E2868704
S11304209787E2EAF0E080818160808329813A81C4
S11304304B815C811F92812C0F2EF3E0AF2EF02DA7
S11304400F2EFCEFCF2EF02D6894EE24E6F8FF2457
S1130450F1F804E160EC85E390E20E948D050F90D1
S113046088230CF4FFCF4CE36CE385E390E20E9415
S11304702E0588230CF4FFCFE5E3F0E283E0838FBD
S113048084E0848F68E1CF010E94F40488230CF493
S1130490FFCF2496CDBFDEBFDF91CF910F91FF90A8
S11304A0EF90CF90AF908F900895E0E0F2E081E07C
S11304B0808398E09093010290E19093020297E088
S11304C0909304028093200283E080932202A2EAA4
S11304D0B0E08C9184608C9388E1809321028081C8
S11304E08460808308958AE098E28093260890933C
S11304F0270881E08093000882E08093060883E067
S11305008093A200089510920006E3E1F6E0808152
S113051087608083089540E060E081E00E945A068D
S1130520F8940E94ED010E9483020E9473020E94CB
S1130530F4010E945502789406E010E2C4E1D0E28E
S1130540809134208130E1F7109234208091D920B9
S11305509091DA209F938F931F930F93DF93CF9300
S11305600E94510CBE0185E390E20E947A0385E368
S113057090E20E94DA040F900F900F900F900F906A
S11305800F90DECFCF93DF93FC01828D80FD1EC0E0
S113059093898489981309C0828D8160828F828DAA
S11305A08D7F828F148A138A11C0A081B181C68580
S11305B0D785838991E0980F938BC80FD11D8881CB
S11305C08C9393898589981708F0138ADF91CF91CA
S11305D00895FC01A081B1818C91828B838D80FF71
S11305E004C0A081B18182898C93A089B189868954
S11305F091E0980F968BA80FB11D82898C939689F0
S1130600818D981708F0168A96898789981318C0DF
S1130610828D8860828F82A1813031F48689808FB7
S1130620828D8460828F089586898F5F878B278966
S1130630818D30E090E00197821793070CF4178ABC
S1130640808D882389F08789908D890F918D9817E3
S113065010F4918D891B9689981306C0828D84604D
S1130660828F8689808F0895838D8E7109F441C0AD
S1130670838D84FF0EC08289883059F48689825024
S1130680868B808991892689FC01E20FF11D1082F5
S11306900895838D82FF06C0828921E08D3019F090
S11306A020E001C020E0838D81FF04C082898A306C
S11306B009F421E0838D83FF15C08689823090F090
S11306C080899189A689B0E01297A80FB91F9C91DF
S11306D082898D3019F49A3029F406C08A3011F4D5
S11306E09D3011F0222329F0828D8460828F8689C7
S11306F0808F08956F927F928F929F92AF92BF9254
S1130700CF92DF92EF92FF920F931F93CF93DF93D9
S1130710CDB7DEB7CE5FD109CDBFDEBF8C01009768
S113072009F42EC1DC015A968C915A9784FF2AC190
S11307305A968C915A9781FD27C1FB0101900020A4
S1130740E9F73197E61BF70B55968C91559790E096
S1130750E817F90740F05A968C915A9782605A9696
S11307608C938DEF14C1F801C388D12CE488F12C4B
S1130770EC14FD0420F446018E189F0809C08589F5
S11307804601880E911CB1E08B1A91088E189F08BF
S1130790F801858990E001978815990528F48588E2
S11307A0912CF1E08F1A9108CE0101960E944A0C17
S11307B0D8015C968C9180FF0AC0FE0131960190AD
S11307C00020E9F731978AE090E080839183F80173
S11307D0848D81FF0AC0FE01319601900020E9F763
S11307E031978DE090E080839183D8015C968C9161
S11307F082FF0CC0FE01319601900020E9F7319789
S11308008DE09AE0A0E080839183A283DE011196BB
S1130810FD0101900020E9F731975F01AA1ABB0A94
S1130820A814B90430F0F801828D8260828F8EEFB3
S1130830AEC0D8015A968C915A978D7F5A968C9354
S11308405A975A968C915A9780FF10C053961C92CF
S1130850539754961C92549755968C90912CB1E0D2
S11308608B1A9108E12CF12CC12CD12CA4014E0D32
S11308705F1DF801858990E04817590710F04589F4
S113088050E0A114B10409F44DC0E416F506F0F4E7
S1130890FE013196B7016A0D7B1DC701D8011E9672
S11308A08D909C901F979C012F5F3F4F880D991D41
S11308B039016E187F089190DC019C922617370746
S11308C041F02417350728F4C901E8CF9701612CBA
S11308D0712CC50101976816790660F56A147B04CA
S11308E020F5C114D10421F1A1E0B0E0AC0FBD1F8B
S11308F0A60DB71DAC0EBD1E80E090E0F801468544
S113090057859C012F5F3F4FFA01E80FF91F4C9167
S11309104083AA15BB0571F011962C153D0551F0C5
S1130920C901ECCF20E030E005C020E030E002C097
S113093020E030E0D8011E96ED91FC911F97E20F64
S1130940F31F108255968C9190E02817390708F010
S113095020E0F801248B828D80FF18C0828D8E7F69
S1130960828F20813181A685B785838991E0980F94
S1130970938BA80FB11D8C91D9018C9381E007C092
S11309808FEF05C08FEF03C08FEF01C080E0C2502E
S1130990DF4FCDBFDEBFDF91CF911F910F91FF904D
S11309A0EF90DF90CF90BF90AF909F908F907F900B
S11309B06F900895FC010097A9F0A281B3818C91F6
S11309C0882344F4A081B1818C91A281B3818C915C
S11309D08823C4F3168A178A108E828D8B7F828FA8
S11309E080E008958FEF0895FC010097A9F163FF5B
S11309F006C0A681B7818C9188608C9305C0A681BE
S1130A00B7818C91877F8C9364FF06C0A681B781E0
S1130A108C9180618C9305C0A681B7818C918F7E67
S1130A208C93A681B7818C9183FF04C0828D8161F0
S1130A30828F03C0828D8F7E828FA681B7818C9135
S1130A4084FF05C0828D8062828F80E00895828D4C
S1130A508F7D828F80E008958FEF08950F931F9309
S1130A60CF93DF93EC01062F142F009731F161111E
S1130A7009C088899989892B29F0888999890E94D4
S1130A80C10B06C0802F90E00E94290B888B998BA4
S1130A90111109C08E859F85892B29F08E859F852C
S1130AA00E94C10B06C0812F90E00E94290B8E8703
S1130AB09F87098F1D8B80E001C08FEFDF91CF915D
S1130AC01F910F910895FC01603C29F580EC858FFE
S1130AD080EA98E08083918381EA98E0828393831B
S1130AE083EA98E08483958384EA98E086839783F5
S1130AF085EA98E08087918786EA98E082879387E1
S1130B0087EA98E084879587E0E4F6E0808188604E
S1130B10808380E008958FEF08952F923F924F9243
S1130B205F926F927F928F929F92AF92BF92CF9279
S1130B30DF92EF92FF920F931F93CF93DF931F9255
S1130B40CDB7DEB73C0119012A01C982DC015496F4
S1130B501C92549753961C9253975A961C920E9437
S1130B60630588230CF47CC0D3011496ED91FC91A9
S1130B70159700831696ED91FC911797108218969D
S1130B80ED91FC9119978F89A82A8A28808224E6FE
S1130B902E9DC0012F9D900D11246C01E12CF12C90
S1130BA0B9816B2F772767FD7095872F972F0E9448
S1130BB067089B01AC0160E070E080E090E40E9473
S1130BC060099B01AC0160E070E080E89FE30E9453
S1130BD0C4074B015C01D701C601880F991FAA1FE6
S1130BE0BB1F880F991FAA1FBB1F8C019D01000FFB
S1130BF0111F221F331FC901B801620D731D841D0B
S1130C00951DA9019801220F331F441F551F0E94EF
S1130C10E50ACA01B9010E9465089B01AC01C5013E
S1130C20B4010E94F30820E030E040E85FE30E9452
S1130C3057070E943608D3011A96ED91FC911B9731
S1130C4060831C96ED91FC911D9766277F70C98087
S1130C50CC0CCC0CCC0CCC0CC72AC08280E001C0DC
S1130C608FEF0F90DF91CF911F910F91FF90EF9035
S1130C70DF90CF90BF90AF909F908F907F906F90B8
S1130C805F904F903F902F9008950F93CF93DF93F1
S1130C901F92CDB7DEB72FB72983F8941BBEFC0192
S1130CA008ED04BF608389818FBF0F90DF91CF91DE
S1130CB00F910895CF93DF93D82F823059F028F401
S1130CC0882371F0813071F025C0833029F084309D
S1130CD029F020C0C4E007C0C8E005C0C0E103C0DB
S1130CE0C1E001C0C2E0E0E5F0E080818C2B8083AC
S1130CF0642B81E490E00E944506E1E5F0E09081F8
S1130D009C23E9F36D2F80E490E00E94450681E086
S1130D1090E002C08FEF9FEFDF91CF9108950F9382
S1130D201F93CF93DF938C01EB0180914000877078
S1130D30823061F030F4882309F446C0813081F0B8
S1130D40AFC08330B9F08430F9F0AAC080E09DE7E9
S1130D50A0E0B0E0F80180839183A283B3833DC017
S1130D6080E098E4A8EEB1E0F80180839183A28347
S1130D70B38333C080E094E2A4EFB0E0F801808351
S1130D809183A283B38329C025E530E0D9018C91F6
S1130D9080E894E8AEE1B0E0F80180839183A28317
S1130DA0B383D9018C91A82FAF7109F4A1E0B0E00D
S1130DB020E834E84EE150E00E940F0BF801608314
S1130DC071838283938309C080E894E8AEE1B0E044
S1130DD0F80180839183A283B383809141008C774F
S1130DE090E0969587959695879501978132910520
S1130DF028F48E559F4FFC010C94070B21E030E042
S1130E0040E050E02CC024E030E040E050E027C057
S1130E1028E030E040E050E022C020E130E040E053
S1130E2050E01DC020E230E040E050E018C020E473
S1130E3030E040E050E013C020E830E040E050E013
S1130E400EC020E031E040E050E009C020E032E094
S1130E5040E050E004C022E030E040E050E0809107
S1130E60410081FF09C0220F331F441F551F220F69
S1130E70331F441F551F06C080FF04C0220F331FB9
S1130E80441F551FD8016D917D918D919C910E94B5
S1130E90E50A288339834A835B8381E090E002C0BA
S1130EA08FEF9FEFDF91CF911F910F9108955058CD
S1130EB0BB27AA270E946F070C94B9080E94AB08AD
S1130EC038F00E94B20820F039F49F3F19F426F458
S1130ED00C94A8080EF4E095E7FB0C94A208E92F03
S1130EE00E94CA0858F3BA17620773078407950764
S1130EF020F079F4A6F50C94EC080EF4E0950B2E92
S1130F00BA2FA02D0B01B90190010C01CA01A00157
S1130F101124FF27591B99F0593F50F4503E68F1B2
S1130F201A16F040A22F232F342F4427585FF3CFF3
S1130F30469537952795A795F0405395C9F77EF4C4
S1130F401F16BA0B620B730B840BBAF09150A1F00D
S1130F50FF0FBB1F661F771F881FC2F70EC0BA0F93
S1130F60621F731F841F48F4879577956795B7951B
S1130F70F7959E3F08F0B0CF9395880F08F0992716
S1130F80EE0F9795879508950E94D8070C94B90899
S1130F900E94B20858F00E94AB0840F029F45F3F69
S1130FA029F00C94A20851110C94ED080C94A80893
S1130FB00E94CA0868F39923B1F3552391F3951B52
S1130FC0550BBB27AA2762177307840738F09F5F66
S1130FD05F4F220F331F441FAA1FA9F335D00E2ED3
S1130FE03AF0E0E832D091505040E695001CCAF740
S1130FF02BD0FE2F29D0660F771F881FBB1F261703
S113100037074807AB07B0E809F0BB0B802DBF01D9
S1131010FF2793585F4F3AF09E3F510578F00C94A8
S1131020A2080C94ED085F3FE4F3983ED4F3869550
S113103077956795B795F7959F5FC9F7880F911DC9
S11310409695879597F90895E1E0660F771F881FB5
S1131050BB1F621773078407BA0720F0621B730B68
S1131060840BBA0BEE1F88F7E09508950E94D2080E
S113107088F09F5798F0B92F9927B751B0F0E1F055
S1131080660F771F881F991F1AF0BA95C9F714C005
S1131090B13091F00E94EC08B1E008950C94EC0892
S11310A0672F782F8827B85F39F0B93FCCF386953E
S11310B077956795B395D9F73EF49095809570959B
S11310C061957F4F8F4F9F4F0895E89409C097FB18
S11310D03EF490958095709561957F4F8F4F9F4F0B
S11310E09923A9F0F92F96E9BB279395F69587954F
S11310F077956795B795F111F8CFFAF4BB0F11F412
S113110060FF1BC06F5F7F4F8F4F9F4F16C08823B8
S113111011F096E911C0772321F09EE8872F762FEE
S113112005C0662371F096E8862F70E060E02AF02F
S11311309A95660F771F881FDAF7880F969587951B
S113114097F9089597F99F6780E870E060E0089543
S11311509FEF80EC089500240A94161617061806CB
S11311600906089500240A941216130614060506A7
S11311700895092E0394000C11F4882352F0BB0F38
S113118040F4BF2B11F460FF04C06F5F7F4F8F4F9B
S11311909F4F089557FD9058440F551F59F05F3FD6
S11311A071F04795880F97FB991F61F09F3F79F085
S11311B087950895121613061406551FF2CF469507
S11311C0F1DF08C0161617061806991FF1CF869589
S11311D07105610508940895E894BB27662777276D
S11311E0CB0197F908950E9406090C94B9080E944E
S11311F0AB0838F00E94B20820F0952311F00C944B
S1131200A2080C94A80811240C94ED080E94CA08A2
S113121070F3959FC1F3950F50E0551F629FF00145
S1131220729FBB27F00DB11D639FAA27F00DB11D5E
S1131230AA1F649F6627B00DA11D661F829F2227E7
S1131240B00DA11D621F739FB00DA11D621F839F6E
S1131250A00D611D221F749F3327A00D611D231F44
S1131260849F600D211D822F762F6A2F11249F5792
S113127050409AF0F1F088234AF0EE0FFF1FBB1F95
S1131280661F771F881F91505040A9F79E3F510554
S113129080F00C94A2080C94ED085F3FE4F3983EB0
S11312A0D4F3869577956795B795F795E7959F5FFE
S11312B0C1F7FE2B880F911D9695879597F9089590
S11312C0FA01EE0FFF1F309621053105A1F16115DA
S11312D0710561F48038BFE39B0749F16894903845
S11312E0810561F08038BFEF9B0741F099234AF5EF
S11312F0FF3FE1053105210519F1E8940894E795CC
S1131300D901AA2329F4AB2FBE2FF85FD0F310C064
S1131310FF5F70F4A695E0F7F73950F019F0FF3A43
S113132038F49F779F930DD00F9007FC9058089541
S113133046F00C94A80860E070E080E89FE308950C
S11313404FE79F775F934F933F932F930E945B0ADE
S11313502F913F914F915F910E94F3080C94B8092B
S113136029F416F00C94A2080C94EC080C94A80828
S11313700E94D208A8F39638A0F707F80F92E894D1
S11313802BE33AEA48EB5FE70E9409090F920F92B8
S11313900F924DB75EB70F920E94A30AE6E8F1E000
S11313A00E94EA094F915F91EF91FF91E595EE1F3D
S11313B0FF1F49F0FE57E0684427EE0F441FFA95DB
S11313C0E1F74195550B0E941D0A0F9007FE0C94FE
S11313D0110A0895DF93CF931F930F93FF92EF9217
S11313E0DF927B018C01689406C0DA2EEF010E9423
S11313F00609FE01E894A5912591359145915591F1
S1131400A6F3EF010E946F07FE019701A801DA9489
S113141069F7DF90EF90FF900F911F91CF91DF91CB
S113142008959B01AC0160E070E080E89FE30C94B8
S1131430C4070C94A2080C94D70A0E94D208D8F3CB
S11314409923C9F3940F511DA3F39150504094F084
S113145059F0882332F0660F771F881F915050404F
S1131460C1F79E3F51052CF7880F911D96958795DE
S113147097F908955F3FACF0983E9CF0BB278695A2
S113148077956795B79508F4B1609395C1F7BB0F4D
S113149058F711F460FFE8CF6F5F7F4F8F4F9F4F76
S11314A0E3CF0C94ED0816F00C94D70A0C94A8081A
S11314B068940C94A2080E94D208A8F39923C1F35B
S11314C0AEF3DF93CF931F930F93FF92C92FDD27C2
S11314D088232AF02197660F771F881FDAF720E008
S11314E030E040E85FEB9FE3883920F0803E38F03D
S11314F021968F770E945807EEEAF1E004C00E941B
S11315005807EBEDF1E00E94EA098B01BE01EC0102
S1131510FB2E6F5771097595771F880B990B0E94E5
S1131520670828E132E741E35FE30E940609AF2D33
S11315309801AE01FF900F911F91CF91DF910E940E
S11315406F070C94B908FA01DC01AA0FBB1F9B01B9
S1131550AC01BF5728F4222733274427507820C0F2
S1131560B75190F4AB2F0024469537952795011C6D
S1131570A395D2F3002071F0220F331F441FB395BB
S1131580DAF30ED00C94570761307105A0E88A078E
S1131590B94630F49B01AC016627772788279078F9
S11315A0309621F0208331834283538308959F3FF3
S11315B031F0915020F4879577956795B795880F0A
S11315C0911D9695879597F90895A1E21A2EAA1B65
S11315D0BB1BFD010DC0AA1FBB1FEE1FFF1FA217DF
S11315E0B307E407F50720F0A21BB30BE40BF50BDC
S11315F0661F771F881F991F1A9469F76095709565
S1131600809590959B01AC01BD01CF010895EE0F2B
S1131610FF1F881F8BBF0790F691E02D19940E943D
S11316201A0BA59F900DB49F900DA49F800D911D42
S113163011240895A29FB001B39FC001A39F700D10
S1131640811D1124911DB29F700D811D1124911DC6
S113165008950F931F93CF93DF938230910510F475
S113166082E090E0E091DD20F091DE2020E030E0A7
S1131670A0E0B0E0309719F14081518102811381DB
S113168048175907C8F08417950769F4109731F083
S113169012960C93129713961C9327C00093DD2087
S11316A01093DE2022C02115310519F0421753078B
S11316B018F49A01BD01EF01DF01F801DBCF211518
S11316C03105F9F0281B390B2430310580F48A8167
S11316D09B816115710521F0FB018283938304C012
S11316E08093DD209093DE20FE01329644C0FE01FB
S11316F0E20FF31F81939193225031092883398398
S11317003AC02091DB203091DC20232B41F420913E
S11317100220309103202093DB203093DC202091A1
S11317200020309101202115310541F42DB73EB739
S11317304091042050910520241B350BE091DB20BF
S1131740F091DC20E217F307A0F42E1B3F0B2817BF
S1131750390778F0AC014E5F5F4F2417350748F026
S11317604E0F5F1F4093DB205093DC2081939193B5
S113177002C0E0E0F0E0CF01DF91CF911F910F9123
S11317800895CF93DF93009709F481C0FC01329749
S113179012821382A091DD20B091DE20109781F493
S11317A020813181820F931F2091DB203091DC2036
S11317B02817390751F5E093DB20F093DC2067C04C
S11317C0ED0120E030E0CE17DF0740F44A815B8171
S11317D09E0141155105F1F0EA01F5CFC283D3838F
S11317E040815181840F951FC817D90759F4888106
S11317F09981840F951F0296808391838A819B81AE
S1131800828393832115310529F4E093DD20F0933D
S1131810DE203DC0E901EA83FB8349915991C40F5D
S1131820D51FEC17FD0761F480819181840F951F0A
S11318300296E90188839983828193818A839B83B9
S1131840E0E0F0E012968D919C911397009719F0C7
S1131850FD01DC01F7CF8D919C9111979D012E5FC5
S11318603F4F820F931F2091DB203091DC202817FB
S1131870390769F4309729F41092DD201092DE20A4
S113188002C012821382A093DB20B093DC20DF918C
S1131890CF910895FB01DC0101900D920020E1F746
S11318A008950F931F93CF93DF93CDB7DEB72E9791
S11318B0CDBFDEBF0E891F8986E08C8309831A831E
S11318C08FEF9FE78D839E83AE01465E5F4F688DE9
S11318D0798DCE0101960E947A0CEF81F885E00F94
S11318E0F11F10822E96CDBFDEBFDF91CF911F91E5
S11318F00F9108952F923F924F925F926F927F9231
S11319008F929F92AF92BF92CF92DF92EF92FF920B
S11319100F931F93CF93DF93CDB7DEB72B97CDBF34
S1131920DEBF6C017B018A01FC0116821782838170
S113193081FFCCC1CE0101963C01F6019381F701F0
S113194093FD859193FF81917F01882309F4BAC1A6
S1131950853239F493FD859193FF81917F0185321E
S113196029F4B60190E00E94940EE7CF912C212C2B
S1131970312CFFE1F315D8F08B3279F038F4803252
S113198079F08332A1F4232D20611DC08D3261F0E2
S1131990803369F4232D216016C0832D8260382E94
S11319A0E32DE4603E2E2AC0F32DF8601DC037FC01
S11319B02DC020ED280F2A3040F08E32B9F436FCC9
S11319C081C1232D2064322E19C036FE06C08AE060
S11319D0989E200D1124922E11C0EAE02E9E200D17
S11319E01124222EF32DF0623F2E08C08C3621F4F0
S11319F0832D8068382E02C0883641F4F70193FDA8
S1131A00859193FF81917F018111B3CF982F9F7DA1
S1131A109554933028F40C5F1F4F9FE399830DC0B6
S1131A20833631F0833771F0833509F059C021C012
S1131A30F801808189830E5F1F4F88248394912C41
S1131A40530113C02801F2E04F0E511CF801A0808D
S1131A50B18036FE03C0692D70E002C06FEF7FEFE6
S1131A60C5010E94890E4C018201F32DFF773F2EA0
S1131A7016C0280122E0420E511CF801A080B1805A
S1131A8036FE03C0692D70E002C06FEF7FEFC50121
S1131A900E947E0E4C01F32DF0683F2E820133FC30
S1131AA01BC0822D90E088169906B0F4B60180E23E
S1131AB090E00E94940E2A94F4CFF50137FC8591AE
S1131AC037FE81915F01B60190E00E94940E2110CF
S1131AD02A9421E0821A91088114910471F7E8C0D4
S1131AE0843611F0893641F5F80137FE07C060816C
S1131AF07181828193810C5F1F4F08C06081718165
S1131B00072E000C880B990B0E5F1F4FF32DFF76E9
S1131B103F2E97FF09C090958095709561957F4FF2
S1131B208F4F9F4FF0683F2E2AE030E0A3010E94C0
S1131B30D00E882E861845C0853731F4232D2F7E8C
S1131B40B22E2AE030E025C0932D997FB92E8F362E
S1131B50C1F018F4883579F0B5C0803719F08837AA
S1131B6021F0B0C0E92FE061BE2EB4FE0DC0FB2D04
S1131B70F460BF2E09C034FE0AC0292F2660B22E9D
S1131B8006C028E030E005C020E130E002C020E1DA
S1131B9032E0F801B7FE07C06081718182819381D0
S1131BA00C5F1F4F06C06081718180E090E00E5F82
S1131BB01F4FA3010E94D00E882E8618FB2DFF779D
S1131BC03F2E36FE0DC0232D2E7FA22E891458F4ED
S1131BD034FE0BC032FC09C0832D8E7EA82E05C0B6
S1131BE0B82CA32C03C0B82C01C0B92CA4FE0FC080
S1131BF0FE01E80DF11D8081803321F49A2D997E38
S1131C00A92E09C0A2FE06C0B394B39404C08A2DC1
S1131C10867809F0B394A3FC11C0A0FE06C0B214E8
S1131C2088F4280C922C9B180EC0B21460F4B601F0
S1131C3080E290E00E94940EB394F7CFB21418F4AB
S1131C402B1802C0982C212CA4FE10C0B60180E3EE
S1131C5090E00E94940EA2FE17C0A1FC03C088E786
S1131C6090E002C088E590E0B6010CC08A2D867829
S1131C7059F0A1FE02C08BE201C080E2A7FC8DE214
S1131C80B60190E00E94940E891438F4B60180E302
S1131C9090E00E94940E9A94F7CF8A94F301E80D91
S1131CA0F11D8081B60190E00E94940E8110F5CF61
S1131CB0222009F442CEB60180E290E00E94940E04
S1131CC02A94F6CFF6018681978102C08FEF9FEFA9
S1131CD02B96CDBFDEBFDF91CF911F910F91FF9067
S1131CE0EF90DF90CF90BF90AF909F908F907F90B8
S1131CF06F905F904F903F902F900895FC01059056
S1131D00615070400110D8F7809590958E0F9F1FF9
S1131D100895FC016150704001900110D8F780953E
S1131D2090958E0F9F1F08950F931F93CF93DF936A
S1131D30FB01238121FD03C08FEF9FEF2CC022FF05
S1131D4016C046815781248135814217530744F4D4
S1131D50A081B1819D012F5F3F4F208331838C93FC
S1131D60268137812F5F3F4F2683378314C08B0131
S1131D70EC01FB010084F185E02D1995892BE1F636
S1131D80D80116968D919C911797019616968D936E
S1131D909C931797CE01DF91CF911F910F910895D6
S1131DA0FA01AA27283051F1203181F1E8946F9388
S1131DB06E7F6E5F7F4F8F4F9F4FAF4FB1E03ED02E
S1131DC0B4E03CD0670F781F891F9A1FA11D680FCC
S1131DD0791F8A1F911DA11D6A0F711D811D911DFF
S1131DE0A11D20D009F468943F912AE0269F112474
S1131DF03019305D3193DEF6CF010895462F4770D8
S1131E00405D4193B3E00FD0C9F7F6CF462F4F7032
S1131E10405D4A3318F0495D31FD4052419302D090
S1131E20A9F7EACFB4E0A695979587957795679536
S1131E30BA95C9F700976105710508959B01AC0136
S1131E400A2E06945795479537952795BA95C9F75D
S1131E50620F731F841F951FA01D0895F894FFCF70
S1131E600000DF2020002564206D6F697374757293
S1071E70650D0A00EE
S9030000FC
